
main.elf:     file format elf32-avr

Sections:
Idx Name          Size      VMA       LMA       File off  Algn
  0 .text         000000d0  00000000  00000000  00000054  2**1
                  CONTENTS, ALLOC, LOAD, READONLY, CODE
  1 .debug_aranges 00000020  00000000  00000000  00000124  2**0
                  CONTENTS, READONLY, DEBUGGING
  2 .debug_pubnames 0000001b  00000000  00000000  00000144  2**0
                  CONTENTS, READONLY, DEBUGGING
  3 .debug_info   00000191  00000000  00000000  0000015f  2**0
                  CONTENTS, READONLY, DEBUGGING
  4 .debug_abbrev 000000e8  00000000  00000000  000002f0  2**0
                  CONTENTS, READONLY, DEBUGGING
  5 .debug_line   000001bc  00000000  00000000  000003d8  2**0
                  CONTENTS, READONLY, DEBUGGING
  6 .debug_frame  00000020  00000000  00000000  00000594  2**2
                  CONTENTS, READONLY, DEBUGGING
  7 .debug_str    000000c9  00000000  00000000  000005b4  2**0
                  CONTENTS, READONLY, DEBUGGING
  8 .debug_loc    00000100  00000000  00000000  0000067d  2**0
                  CONTENTS, READONLY, DEBUGGING
  9 .debug_ranges 00000090  00000000  00000000  0000077d  2**0
                  CONTENTS, READONLY, DEBUGGING

Disassembly of section .text:

00000000 <__vectors>:
   0:	0c 94 2a 00 	jmp	0x54	; 0x54 <__ctors_end>
   4:	0c 94 34 00 	jmp	0x68	; 0x68 <__bad_interrupt>
   8:	0c 94 34 00 	jmp	0x68	; 0x68 <__bad_interrupt>
   c:	0c 94 34 00 	jmp	0x68	; 0x68 <__bad_interrupt>
  10:	0c 94 34 00 	jmp	0x68	; 0x68 <__bad_interrupt>
  14:	0c 94 34 00 	jmp	0x68	; 0x68 <__bad_interrupt>
  18:	0c 94 34 00 	jmp	0x68	; 0x68 <__bad_interrupt>
  1c:	0c 94 34 00 	jmp	0x68	; 0x68 <__bad_interrupt>
  20:	0c 94 34 00 	jmp	0x68	; 0x68 <__bad_interrupt>
  24:	0c 94 34 00 	jmp	0x68	; 0x68 <__bad_interrupt>
  28:	0c 94 34 00 	jmp	0x68	; 0x68 <__bad_interrupt>
  2c:	0c 94 34 00 	jmp	0x68	; 0x68 <__bad_interrupt>
  30:	0c 94 34 00 	jmp	0x68	; 0x68 <__bad_interrupt>
  34:	0c 94 34 00 	jmp	0x68	; 0x68 <__bad_interrupt>
  38:	0c 94 34 00 	jmp	0x68	; 0x68 <__bad_interrupt>
  3c:	0c 94 34 00 	jmp	0x68	; 0x68 <__bad_interrupt>
  40:	0c 94 34 00 	jmp	0x68	; 0x68 <__bad_interrupt>
  44:	0c 94 34 00 	jmp	0x68	; 0x68 <__bad_interrupt>
  48:	0c 94 34 00 	jmp	0x68	; 0x68 <__bad_interrupt>
  4c:	0c 94 34 00 	jmp	0x68	; 0x68 <__bad_interrupt>
  50:	0c 94 34 00 	jmp	0x68	; 0x68 <__bad_interrupt>

00000054 <__ctors_end>:
  54:	11 24       	eor	r1, r1
  56:	1f be       	out	0x3f, r1	; 63
  58:	cf e5       	ldi	r28, 0x5F	; 95
  5a:	d4 e0       	ldi	r29, 0x04	; 4
  5c:	de bf       	out	0x3e, r29	; 62
  5e:	cd bf       	out	0x3d, r28	; 61
  60:	0e 94 36 00 	call	0x6c	; 0x6c <main>
  64:	0c 94 66 00 	jmp	0xcc	; 0xcc <_exit>

00000068 <__bad_interrupt>:
  68:	0c 94 00 00 	jmp	0	; 0x0 <__vectors>

0000006c <main>:
#define light_lim 0b00010111

int  main(void)
  {
  unsigned  int adc_value0;        // Variable to hold ADC  result
  DDRB=0xff;        // Set Port B for LED output
  6c:	8f ef       	ldi	r24, 0xFF	; 255
  6e:	87 bb       	out	0x17, r24	; 23
  PORTB  = 0x00;        // Clear PortB pins
  70:	18 ba       	out	0x18, r1	; 24

 

  while (1)        //Forever 
        {
         ADCSRA  = (1<<ADEN) | (1<<ADPS2) ; // Set ADCSRA Register with division factor 16
  72:	74 e8       	ldi	r23, 0x84	; 132

                 
                 }
          else if (adc_value0<light_lim)
          {
             PORTB=0x01;
  74:	61 e0       	ldi	r22, 0x01	; 1
    milliseconds can be achieved.
 */
void
_delay_loop_2(uint16_t __count)
{
	__asm__ volatile (
  76:	28 ec       	ldi	r18, 0xC8	; 200
  78:	30 e0       	ldi	r19, 0x00	; 0

 

  while (1)        //Forever 
        {
         ADCSRA  = (1<<ADEN) | (1<<ADPS2) ; // Set ADCSRA Register with division factor 16
  7a:	40 e2       	ldi	r20, 0x20	; 32
  7c:	5e e4       	ldi	r21, 0x4E	; 78
  7e:	76 b9       	out	0x06, r23	; 6
         ADMUX |=(1<<ADLAR);
  80:	3d 9a       	sbi	0x07, 5	; 7
         ADMUX &= ~( (1<<MUX1) | (1<<MUX0) );        //ADC0 SELECTED
  82:	87 b1       	in	r24, 0x07	; 7
  84:	8c 7f       	andi	r24, 0xFC	; 252
  86:	87 b9       	out	0x07, r24	; 7
           ADCSRA  |= (1<<ADSC);        // Start conversion
  88:	36 9a       	sbi	0x06, 6	; 6
                while (ADCSRA &  (1<<ADSC));
  8a:	36 99       	sbic	0x06, 6	; 6
  8c:	fe cf       	rjmp	.-4      	; 0x8a <main+0x1e>
                // wait until conversion  completes; ADSC=0 means Complete
           adc_value0 = ADCH;        //Store ADC result
  8e:	85 b1       	in	r24, 0x05	; 5
  90:	90 e0       	ldi	r25, 0x00	; 0
         ADCSRA  = 0x00 ;
  92:	16 b8       	out	0x06, r1	; 6
		 //{
		 //_delay_ms(100);
		 //}
		 
         
          if (adc_value0>light_lim)
  94:	88 31       	cpi	r24, 0x18	; 24
  96:	91 05       	cpc	r25, r1
  98:	48 f0       	brcs	.+18     	; 0xac <main+0x40>
          {
             PORTB=0x00;
  9a:	18 ba       	out	0x18, r1	; 24
  9c:	88 ee       	ldi	r24, 0xE8	; 232
  9e:	93 e0       	ldi	r25, 0x03	; 3
  a0:	f9 01       	movw	r30, r18
  a2:	31 97       	sbiw	r30, 0x01	; 1
  a4:	f1 f7       	brne	.-4      	; 0xa2 <main+0x36>
		__ticks = (uint16_t) (__ms * 10.0);
		while(__ticks)
		{
			// wait 1/10 ms
			_delay_loop_2(((F_CPU) / 4e3) / 10);
			__ticks --;
  a6:	01 97       	sbiw	r24, 0x01	; 1
		__ticks = 1;
	else if (__tmp > 65535)
	{
		//	__ticks = requested delay in 1/10 ms
		__ticks = (uint16_t) (__ms * 10.0);
		while(__ticks)
  a8:	d9 f7       	brne	.-10     	; 0xa0 <main+0x34>
  aa:	0c c0       	rjmp	.+24     	; 0xc4 <main+0x58>
                 _delay_ms(100);

                 
                 }
          else if (adc_value0<light_lim)
  ac:	47 97       	sbiw	r24, 0x17	; 23
  ae:	49 f0       	breq	.+18     	; 0xc2 <main+0x56>
          {
             PORTB=0x01;
  b0:	68 bb       	out	0x18, r22	; 24
  b2:	88 ee       	ldi	r24, 0xE8	; 232
  b4:	93 e0       	ldi	r25, 0x03	; 3
  b6:	f9 01       	movw	r30, r18
  b8:	31 97       	sbiw	r30, 0x01	; 1
  ba:	f1 f7       	brne	.-4      	; 0xb8 <main+0x4c>
		{
			// wait 1/10 ms
			_delay_loop_2(((F_CPU) / 4e3) / 10);
			__ticks --;
  bc:	01 97       	sbiw	r24, 0x01	; 1
		__ticks = 1;
	else if (__tmp > 65535)
	{
		//	__ticks = requested delay in 1/10 ms
		__ticks = (uint16_t) (__ms * 10.0);
		while(__ticks)
  be:	d9 f7       	brne	.-10     	; 0xb6 <main+0x4a>
  c0:	01 c0       	rjmp	.+2      	; 0xc4 <main+0x58>
                 _delay_ms(100);

                 }
          else
          {
             PORTB=0x00;
  c2:	18 ba       	out	0x18, r1	; 24
  c4:	ca 01       	movw	r24, r20
  c6:	01 97       	sbiw	r24, 0x01	; 1
  c8:	f1 f7       	brne	.-4      	; 0xc6 <main+0x5a>
  ca:	d9 cf       	rjmp	.-78     	; 0x7e <main+0x12>

000000cc <_exit>:
  cc:	f8 94       	cli

000000ce <__stop_program>:
  ce:	ff cf       	rjmp	.-2      	; 0xce <__stop_program>
